{
  "contractName": "Election",
  "abi": [
    {
      "constant": true,
      "inputs": [],
      "name": "candidatesCount",
      "outputs": [
        {
          "name": "",
          "type": "uint256"
        }
      ],
      "payable": false,
      "stateMutability": "view",
      "type": "function",
      "signature": "0x2d35a8a2"
    },
    {
      "constant": true,
      "inputs": [
        {
          "name": "",
          "type": "uint256"
        }
      ],
      "name": "candidates",
      "outputs": [
        {
          "name": "id",
          "type": "uint256"
        },
        {
          "name": "name",
          "type": "string"
        },
        {
          "name": "voteCount",
          "type": "uint256"
        }
      ],
      "payable": false,
      "stateMutability": "view",
      "type": "function",
      "signature": "0x3477ee2e"
    },
    {
      "constant": true,
      "inputs": [
        {
          "name": "",
          "type": "address"
        }
      ],
      "name": "voters",
      "outputs": [
        {
          "name": "",
          "type": "bool"
        }
      ],
      "payable": false,
      "stateMutability": "view",
      "type": "function",
      "signature": "0xa3ec138d"
    },
    {
      "inputs": [],
      "payable": false,
      "stateMutability": "nonpayable",
      "type": "constructor",
      "signature": "constructor"
    },
    {
      "constant": false,
      "inputs": [
        {
          "name": "_candidateId",
          "type": "uint256"
        }
      ],
      "name": "vote",
      "outputs": [],
      "payable": false,
      "stateMutability": "nonpayable",
      "type": "function",
      "signature": "0x0121b93f"
    }
  ],
  "bytecode": "0x608060405234801561001057600080fd5b5061005e6040805190810160405280600b81526020017f43616e64696461746520310000000000000000000000000000000000000000008152506100b0640100000000026401000000009004565b6100ab6040805190810160405280600b81526020017f43616e64696461746520320000000000000000000000000000000000000000008152506100b0640100000000026401000000009004565b6101d1565b60026000815480929190600101919050555060606040519081016040528060025481526020018281526020016000815250600080600254815260200190815260200160002060008201518160000155602082015181600101908051906020019061011b92919061012c565b506040820151816002015590505050565b828054600181600116156101000203166002900490600052602060002090601f016020900481019282601f1061016d57805160ff191683800117855561019b565b8280016001018555821561019b579182015b8281111561019a57825182559160200191906001019061017f565b5b5090506101a891906101ac565b5090565b6101ce91905b808211156101ca5760008160009055506001016101b2565b5090565b90565b610401806101e06000396000f3fe608060405260043610610062576000357c0100000000000000000000000000000000000000000000000000000000900463ffffffff1680630121b93f146100675780632d35a8a2146100a25780633477ee2e146100cd578063a3ec138d1461018f575b600080fd5b34801561007357600080fd5b506100a06004803603602081101561008a57600080fd5b81019080803590602001909291905050506101f8565b005b3480156100ae57600080fd5b506100b76102ed565b6040518082815260200191505060405180910390f35b3480156100d957600080fd5b50610106600480360360208110156100f057600080fd5b81019080803590602001909291905050506102f3565b6040518084815260200180602001838152602001828103825284818151815260200191508051906020019080838360005b83811015610152578082015181840152602081019050610137565b50505050905090810190601f16801561017f5780820380516001836020036101000a031916815260200191505b5094505050505060405180910390f35b34801561019b57600080fd5b506101de600480360360208110156101b257600080fd5b81019080803573ffffffffffffffffffffffffffffffffffffffff1690602001909291905050506103b5565b604051808215151515815260200191505060405180910390f35b600160003373ffffffffffffffffffffffffffffffffffffffff1673ffffffffffffffffffffffffffffffffffffffff16815260200190815260200160002060009054906101000a900460ff1615151561025157600080fd5b60008111801561026357506002548111155b151561026e57600080fd5b60018060003373ffffffffffffffffffffffffffffffffffffffff1673ffffffffffffffffffffffffffffffffffffffff16815260200190815260200160002060006101000a81548160ff0219169083151502179055506000808281526020019081526020016000206002016000815480929190600101919050555050565b60025481565b6000602052806000526040600020600091509050806000015490806001018054600181600116156101000203166002900480601f0160208091040260200160405190810160405280929190818152602001828054600181600116156101000203166002900480156103a55780601f1061037a576101008083540402835291602001916103a5565b820191906000526020600020905b81548152906001019060200180831161038857829003601f168201915b5050505050908060020154905083565b60016020528060005260406000206000915054906101000a900460ff168156fea165627a7a723058202683686df08dcfc4bb096cbab8941f75754f11681b23a7da178b00a7e5fc48bf0029",
  "source": "pragma solidity ^0.5.0;\r\n\r\ncontract Election {\r\n\r\n\r\n\t//model a candidate \r\n\r\n\tstruct Candidate{  //structure type\r\n\t\tuint id; //unsigned int\r\n\t\tstring name;\r\n\t\tuint voteCount; \r\n\t}\r\n\r\n\t//store candidate\r\n\r\n\tmapping(uint => Candidate) public candidates; //hashmap (key value pair) //when candidate is added, we are changing the state of our contract and we are writing to the blockchain\r\n\tmapping(address => bool) public voters; //whether a voter has voted or not //default value of the bool is false\r\n\t//store candidate count\r\n\tuint public candidatesCount; //to keep track of number of candidates because you cannot say candidates.size\r\n\r\n\t\r\n\t// constructor\r\n\tconstructor() public{\r\n\t\t//this will be executed when the contract is migrated and deployed\r\n\t\taddCandidate(\"Candidate 1\");\r\n\t\taddCandidate(\"Candidate 2\");\r\n\t}\r\n\r\n\tfunction addCandidate(string memory _name) private { //local variable prepended with an underscore\r\n\t\tcandidatesCount++; \r\n\t\tcandidates[candidatesCount] = Candidate(candidatesCount, _name, 0);  //instantiate a structure //vote count 0 initially\r\n\t}\r\n\r\n\tfunction vote(uint _candidateId) public{\r\n\t    \r\n\t\t//require that they have not voted before\r\n\t\trequire(!voters[msg.sender]); //require function - if we get true then the following code is executed else the execution stops\r\n\t\t\r\n\t\t//simiar to\r\n\t\t//if(condition)\r\n\t\t//  return\r\n\r\n\t\t//require a valid candidate\r\n\t\trequire(_candidateId > 0  && _candidateId <= candidatesCount);  //if the candidate votes for an invalid candidate then the gas will not be returned or if there is any bug in the code that converts valid to an invalid candidate, the user will suffer gas loss. So ensure that the contract is bug free.\r\n\r\n\t\t//if require is found false, then the gas used uptill this part will not be returned back. Ofcourse, no gas will be used for the code below because that code wont be executed.\r\n\r\n\t\t//record that voter has voted \r\n\t\t//we can get metadata which will have the data (address) of the person calling this function\r\n\t\tvoters[msg.sender] = true; //sender is the account  \r\n\r\n\t\t//update vote count\r\n\t\tcandidates[_candidateId].voteCount ++;\r\n\t}\r\n}",
  "sourcePath": "Z:/election_dapp/contracts/Election.sol",
  "compiler": {
    "name": "solc",
    "version": "0.5.0+commit.1d4f565a.Emscripten.clang"
  },
  "schemaVersion": "3.0.3",
  "updatedAt": "2019-03-25T19:16:13.856Z",
  "devdoc": {
    "methods": {}
  },
  "userdoc": {
    "methods": {}
  }
}